{
	"Etherium/Constract.sol": {
		"Bebra": {
			"abi": [
				{
					"inputs": [],
					"stateMutability": "nonpayable",
					"type": "constructor"
				},
				{
					"inputs": [],
					"name": "getMoney",
					"outputs": [],
					"stateMutability": "nonpayable",
					"type": "function"
				},
				{
					"inputs": [],
					"name": "sendMoney",
					"outputs": [],
					"stateMutability": "payable",
					"type": "function"
				}
			],
			"devdoc": {
				"kind": "dev",
				"methods": {},
				"version": 1
			},
			"evm": {
				"assembly": "    /* \"Etherium/Constract.sol\":71:337  contract Bebra {... */\n  mstore(0x40, 0x80)\n    /* \"Etherium/Constract.sol\":112:162  constructor () {... */\n  callvalue\n  dup1\n  iszero\n  tag_1\n  jumpi\n  0x00\n  dup1\n  revert\ntag_1:\n  pop\n    /* \"Etherium/Constract.sol\":145:155  msg.sender */\n  caller\n    /* \"Etherium/Constract.sol\":137:142  owner */\n  0x00\n  dup1\n    /* \"Etherium/Constract.sol\":137:155  owner = msg.sender */\n  0x0100\n  exp\n  dup2\n  sload\n  dup2\n  0xffffffffffffffffffffffffffffffffffffffff\n  mul\n  not\n  and\n  swap1\n  dup4\n  0xffffffffffffffffffffffffffffffffffffffff\n  and\n  mul\n  or\n  swap1\n  sstore\n  pop\n    /* \"Etherium/Constract.sol\":71:337  contract Bebra {... */\n  dataSize(sub_0)\n  dup1\n  dataOffset(sub_0)\n  0x00\n  codecopy\n  0x00\n  return\nstop\n\nsub_0: assembly {\n        /* \"Etherium/Constract.sol\":71:337  contract Bebra {... */\n      mstore(0x40, 0x80)\n      jumpi(tag_1, lt(calldatasize, 0x04))\n      shr(0xe0, calldataload(0x00))\n      dup1\n      0x98e1b410\n      eq\n      tag_2\n      jumpi\n      dup1\n      0xcbedbf5a\n      eq\n      tag_3\n      jumpi\n    tag_1:\n      0x00\n      dup1\n      revert\n        /* \"Etherium/Constract.sol\":212:335  function getMoney() public {... */\n    tag_2:\n      callvalue\n      dup1\n      iszero\n      tag_4\n      jumpi\n      0x00\n      dup1\n      revert\n    tag_4:\n      pop\n      tag_5\n      tag_6\n      jump\t// in\n    tag_5:\n      stop\n        /* \"Etherium/Constract.sol\":168:206  function sendMoney() public payable {} */\n    tag_3:\n      tag_7\n      tag_8\n      jump\t// in\n    tag_7:\n      stop\n        /* \"Etherium/Constract.sol\":212:335  function getMoney() public {... */\n    tag_6:\n        /* \"Etherium/Constract.sol\":249:267  address payable to */\n      0x00\n        /* \"Etherium/Constract.sol\":278:283  owner */\n      dup1\n      0x00\n      swap1\n      sload\n      swap1\n      0x0100\n      exp\n      swap1\n      div\n      0xffffffffffffffffffffffffffffffffffffffff\n      and\n        /* \"Etherium/Constract.sol\":249:284  address payable to = payable(owner) */\n      swap1\n      pop\n        /* \"Etherium/Constract.sol\":294:296  to */\n      dup1\n        /* \"Etherium/Constract.sol\":294:305  to.transfer */\n      0xffffffffffffffffffffffffffffffffffffffff\n      and\n        /* \"Etherium/Constract.sol\":294:328  to.transfer(address(this).balance) */\n      0x08fc\n        /* \"Etherium/Constract.sol\":306:327  address(this).balance */\n      selfbalance\n        /* \"Etherium/Constract.sol\":294:328  to.transfer(address(this).balance) */\n      swap1\n      dup2\n      iszero\n      mul\n      swap1\n      mload(0x40)\n      0x00\n      mload(0x40)\n      dup1\n      dup4\n      sub\n      dup2\n      dup6\n      dup9\n      dup9\n      call\n      swap4\n      pop\n      pop\n      pop\n      pop\n      iszero\n      dup1\n      iszero\n      tag_11\n      jumpi\n      returndatasize\n      0x00\n      dup1\n      returndatacopy\n      revert(0x00, returndatasize)\n    tag_11:\n      pop\n        /* \"Etherium/Constract.sol\":239:335  {... */\n      pop\n        /* \"Etherium/Constract.sol\":212:335  function getMoney() public {... */\n      jump\t// out\n        /* \"Etherium/Constract.sol\":168:206  function sendMoney() public payable {} */\n    tag_8:\n      jump\t// out\n\n    auxdata: 0xa264697066735822122049ba026294ea1696b3bdd709fe0877d6f4b2ae47628198d6d977ab4321c232b864736f6c63430008070033\n}\n",
				"bytecode": {
					"linkReferences": {},
					"object": "608060405234801561001057600080fd5b50336000806101000a81548173ffffffffffffffffffffffffffffffffffffffff021916908373ffffffffffffffffffffffffffffffffffffffff16021790555060ee8061005f6000396000f3fe60806040526004361060265760003560e01c806398e1b41014602b578063cbedbf5a14603f575b600080fd5b348015603657600080fd5b50603d6047565b005b604560b6565b005b60008060009054906101000a900473ffffffffffffffffffffffffffffffffffffffff1690508073ffffffffffffffffffffffffffffffffffffffff166108fc479081150290604051600060405180830381858888f1935050505015801560b2573d6000803e3d6000fd5b5050565b56fea264697066735822122049ba026294ea1696b3bdd709fe0877d6f4b2ae47628198d6d977ab4321c232b864736f6c63430008070033",
					"opcodes": "PUSH1 0x80 PUSH1 0x40 MSTORE CALLVALUE DUP1 ISZERO PUSH2 0x10 JUMPI PUSH1 0x0 DUP1 REVERT JUMPDEST POP CALLER PUSH1 0x0 DUP1 PUSH2 0x100 EXP DUP2 SLOAD DUP2 PUSH20 0xFFFFFFFFFFFFFFFFFFFFFFFFFFFFFFFFFFFFFFFF MUL NOT AND SWAP1 DUP4 PUSH20 0xFFFFFFFFFFFFFFFFFFFFFFFFFFFFFFFFFFFFFFFF AND MUL OR SWAP1 SSTORE POP PUSH1 0xEE DUP1 PUSH2 0x5F PUSH1 0x0 CODECOPY PUSH1 0x0 RETURN INVALID PUSH1 0x80 PUSH1 0x40 MSTORE PUSH1 0x4 CALLDATASIZE LT PUSH1 0x26 JUMPI PUSH1 0x0 CALLDATALOAD PUSH1 0xE0 SHR DUP1 PUSH4 0x98E1B410 EQ PUSH1 0x2B JUMPI DUP1 PUSH4 0xCBEDBF5A EQ PUSH1 0x3F JUMPI JUMPDEST PUSH1 0x0 DUP1 REVERT JUMPDEST CALLVALUE DUP1 ISZERO PUSH1 0x36 JUMPI PUSH1 0x0 DUP1 REVERT JUMPDEST POP PUSH1 0x3D PUSH1 0x47 JUMP JUMPDEST STOP JUMPDEST PUSH1 0x45 PUSH1 0xB6 JUMP JUMPDEST STOP JUMPDEST PUSH1 0x0 DUP1 PUSH1 0x0 SWAP1 SLOAD SWAP1 PUSH2 0x100 EXP SWAP1 DIV PUSH20 0xFFFFFFFFFFFFFFFFFFFFFFFFFFFFFFFFFFFFFFFF AND SWAP1 POP DUP1 PUSH20 0xFFFFFFFFFFFFFFFFFFFFFFFFFFFFFFFFFFFFFFFF AND PUSH2 0x8FC SELFBALANCE SWAP1 DUP2 ISZERO MUL SWAP1 PUSH1 0x40 MLOAD PUSH1 0x0 PUSH1 0x40 MLOAD DUP1 DUP4 SUB DUP2 DUP6 DUP9 DUP9 CALL SWAP4 POP POP POP POP ISZERO DUP1 ISZERO PUSH1 0xB2 JUMPI RETURNDATASIZE PUSH1 0x0 DUP1 RETURNDATACOPY RETURNDATASIZE PUSH1 0x0 REVERT JUMPDEST POP POP JUMP JUMPDEST JUMP INVALID LOG2 PUSH5 0x6970667358 0x22 SLT KECCAK256 0x49 0xBA MUL PUSH3 0x94EA16 SWAP7 0xB3 0xBD 0xD7 MULMOD INVALID ADDMOD PUSH24 0xD6F4B2AE47628198D6D977AB4321C232B864736F6C634300 ADDMOD SMOD STOP CALLER "
				},
				"gasEstimates": {
					"creation": {
						"codeDepositCost": "47600",
						"executionCost": "24365",
						"totalCost": "71965"
					},
					"external": {
						"getMoney()": "infinite",
						"sendMoney()": "120"
					}
				},
				"methodIdentifiers": {
					"getMoney()": "98e1b410",
					"sendMoney()": "cbedbf5a"
				}
			},
			"storageLayout": {
				"storage": [
					{
						"astId": 3,
						"contract": "Etherium/Constract.sol:Bebra",
						"label": "owner",
						"offset": 0,
						"slot": "0",
						"type": "t_address"
					}
				],
				"types": {
					"t_address": {
						"encoding": "inplace",
						"label": "address",
						"numberOfBytes": "20"
					}
				}
			},
			"userdoc": {
				"kind": "user",
				"methods": {},
				"version": 1
			}
		}
	}
}